{
  "contractName": "Shivom",
  "abi": [
    {
      "inputs": [],
      "name": "dataCount",
      "outputs": [
        {
          "internalType": "uint256",
          "name": "",
          "type": "uint256"
        }
      ],
      "stateMutability": "view",
      "type": "function"
    },
    {
      "inputs": [
        {
          "internalType": "uint256",
          "name": "",
          "type": "uint256"
        }
      ],
      "name": "genomicDataList",
      "outputs": [
        {
          "internalType": "uint256",
          "name": "id",
          "type": "uint256"
        },
        {
          "internalType": "string",
          "name": "dataHash",
          "type": "string"
        },
        {
          "internalType": "address",
          "name": "owner",
          "type": "address"
        },
        {
          "internalType": "bool",
          "name": "isPublic",
          "type": "bool"
        }
      ],
      "stateMutability": "view",
      "type": "function"
    },
    {
      "inputs": [
        {
          "internalType": "string",
          "name": "_dataHash",
          "type": "string"
        },
        {
          "internalType": "bool",
          "name": "_isPublic",
          "type": "bool"
        }
      ],
      "name": "addData",
      "outputs": [],
      "stateMutability": "nonpayable",
      "type": "function"
    },
    {
      "inputs": [
        {
          "internalType": "uint256",
          "name": "_id",
          "type": "uint256"
        }
      ],
      "name": "getDataById",
      "outputs": [
        {
          "internalType": "uint256",
          "name": "",
          "type": "uint256"
        },
        {
          "internalType": "string",
          "name": "",
          "type": "string"
        },
        {
          "internalType": "address",
          "name": "",
          "type": "address"
        },
        {
          "internalType": "bool",
          "name": "",
          "type": "bool"
        }
      ],
      "stateMutability": "view",
      "type": "function"
    },
    {
      "inputs": [],
      "name": "getDataCount",
      "outputs": [
        {
          "internalType": "uint256",
          "name": "",
          "type": "uint256"
        }
      ],
      "stateMutability": "view",
      "type": "function"
    },
    {
      "inputs": [
        {
          "internalType": "uint256",
          "name": "_id",
          "type": "uint256"
        },
        {
          "internalType": "string",
          "name": "_dataHash",
          "type": "string"
        },
        {
          "internalType": "bool",
          "name": "_isPublic",
          "type": "bool"
        }
      ],
      "name": "updateData",
      "outputs": [],
      "stateMutability": "nonpayable",
      "type": "function"
    },
    {
      "inputs": [
        {
          "internalType": "uint256",
          "name": "_id",
          "type": "uint256"
        }
      ],
      "name": "deleteData",
      "outputs": [],
      "stateMutability": "nonpayable",
      "type": "function"
    }
  ],
  "bytecode": "0x6080604052600060015534801561001557600080fd5b50611135806100256000396000f3fe608060405234801561001057600080fd5b506004361061007d5760003560e01c80637355a4241161005b5780637355a424146100d8578063f1a210b6146100f6578063f2722a9f14610112578063fa7501b0146101455761007d565b806320edbfae146100825780634fe8b4c11461009e5780635da40c47146100ba575b600080fd5b61009c600480360381019061009791906109e1565b610178565b005b6100b860048036038101906100b39190610a73565b610283565b005b6100c2610412565b6040516100cf9190610aaf565b60405180910390f35b6100e0610418565b6040516100ed9190610aaf565b60405180910390f35b610110600480360381019061010b9190610aca565b610422565b005b61012c60048036038101906101279190610a73565b610551565b60405161013c9493929190610c08565b60405180910390f35b61015f600480360381019061015a9190610a73565b6106fd565b60405161016f9493929190610c08565b60405180910390f35b6000604051806080016040528060015481526020018481526020013373ffffffffffffffffffffffffffffffffffffffff16815260200183151581525090806001815401808255809150506001900390600052602060002090600302016000909190919091506000820151816000015560208201518160010190816101fd9190610e60565b5060408201518160020160006101000a81548173ffffffffffffffffffffffffffffffffffffffff021916908373ffffffffffffffffffffffffffffffffffffffff16021790555060608201518160020160146101000a81548160ff02191690831515021790555050506001600081548092919061027a90610f61565b91905055505050565b60015481106102c7576040517f08c379a00000000000000000000000000000000000000000000000000000000081526004016102be90610ff5565b60405180910390fd5b60008082815481106102dc576102db611015565b5b906000526020600020906003020190503373ffffffffffffffffffffffffffffffffffffffff168160020160009054906101000a900473ffffffffffffffffffffffffffffffffffffffff1673ffffffffffffffffffffffffffffffffffffffff161461037e576040517f08c379a0000000000000000000000000000000000000000000000000000000008152600401610375906110b6565b60405180910390fd5b6000828154811061039257610391611015565b5b90600052602060002090600302016000808201600090556001820160006103b991906107f2565b6002820160006101000a81549073ffffffffffffffffffffffffffffffffffffffff02191690556002820160146101000a81549060ff0219169055505060016000815480929190610409906110d6565b91905055505050565b60015481565b6000600154905090565b6001548310610466576040517f08c379a000000000000000000000000000000000000000000000000000000000815260040161045d90610ff5565b60405180910390fd5b600080848154811061047b5761047a611015565b5b906000526020600020906003020190503373ffffffffffffffffffffffffffffffffffffffff168160020160009054906101000a900473ffffffffffffffffffffffffffffffffffffffff1673ffffffffffffffffffffffffffffffffffffffff161461051d576040517f08c379a0000000000000000000000000000000000000000000000000000000008152600401610514906110b6565b60405180910390fd5b8281600101908161052e9190610e60565b50818160020160146101000a81548160ff02191690831515021790555050505050565b60006060600080600154851061059c576040517f08c379a000000000000000000000000000000000000000000000000000000000815260040161059390610ff5565b60405180910390fd5b60008086815481106105b1576105b0611015565b5b9060005260206000209060030201604051806080016040529081600082015481526020016001820180546105e490610c83565b80601f016020809104026020016040519081016040528092919081815260200182805461061090610c83565b801561065d5780601f106106325761010080835404028352916020019161065d565b820191906000526020600020905b81548152906001019060200180831161064057829003601f168201915b505050505081526020016002820160009054906101000a900473ffffffffffffffffffffffffffffffffffffffff1673ffffffffffffffffffffffffffffffffffffffff1673ffffffffffffffffffffffffffffffffffffffff1681526020016002820160149054906101000a900460ff161515151581525050905080600001518160200151826040015183606001519450945094509450509193509193565b6000818154811061070d57600080fd5b906000526020600020906003020160009150905080600001549080600101805461073690610c83565b80601f016020809104026020016040519081016040528092919081815260200182805461076290610c83565b80156107af5780601f10610784576101008083540402835291602001916107af565b820191906000526020600020905b81548152906001019060200180831161079257829003601f168201915b5050505050908060020160009054906101000a900473ffffffffffffffffffffffffffffffffffffffff16908060020160149054906101000a900460ff16905084565b5080546107fe90610c83565b6000825580601f10610810575061082f565b601f01602090049060005260206000209081019061082e9190610832565b5b50565b5b8082111561084b576000816000905550600101610833565b5090565b6000604051905090565b600080fd5b600080fd5b600080fd5b600080fd5b6000601f19601f8301169050919050565b7f4e487b7100000000000000000000000000000000000000000000000000000000600052604160045260246000fd5b6108b68261086d565b810181811067ffffffffffffffff821117156108d5576108d461087e565b5b80604052505050565b60006108e861084f565b90506108f482826108ad565b919050565b600067ffffffffffffffff8211156109145761091361087e565b5b61091d8261086d565b9050602081019050919050565b82818337600083830152505050565b600061094c610947846108f9565b6108de565b90508281526020810184848401111561096857610967610868565b5b61097384828561092a565b509392505050565b600082601f8301126109905761098f610863565b5b81356109a0848260208601610939565b91505092915050565b60008115159050919050565b6109be816109a9565b81146109c957600080fd5b50565b6000813590506109db816109b5565b92915050565b600080604083850312156109f8576109f7610859565b5b600083013567ffffffffffffffff811115610a1657610a1561085e565b5b610a228582860161097b565b9250506020610a33858286016109cc565b9150509250929050565b6000819050919050565b610a5081610a3d565b8114610a5b57600080fd5b50565b600081359050610a6d81610a47565b92915050565b600060208284031215610a8957610a88610859565b5b6000610a9784828501610a5e565b91505092915050565b610aa981610a3d565b82525050565b6000602082019050610ac46000830184610aa0565b92915050565b600080600060608486031215610ae357610ae2610859565b5b6000610af186828701610a5e565b935050602084013567ffffffffffffffff811115610b1257610b1161085e565b5b610b1e8682870161097b565b9250506040610b2f868287016109cc565b9150509250925092565b600081519050919050565b600082825260208201905092915050565b60005b83811015610b73578082015181840152602081019050610b58565b60008484015250505050565b6000610b8a82610b39565b610b948185610b44565b9350610ba4818560208601610b55565b610bad8161086d565b840191505092915050565b600073ffffffffffffffffffffffffffffffffffffffff82169050919050565b6000610be382610bb8565b9050919050565b610bf381610bd8565b82525050565b610c02816109a9565b82525050565b6000608082019050610c1d6000830187610aa0565b8181036020830152610c2f8186610b7f565b9050610c3e6040830185610bea565b610c4b6060830184610bf9565b95945050505050565b7f4e487b7100000000000000000000000000000000000000000000000000000000600052602260045260246000fd5b60006002820490506001821680610c9b57607f821691505b602082108103610cae57610cad610c54565b5b50919050565b60008190508160005260206000209050919050565b60006020601f8301049050919050565b600082821b905092915050565b600060088302610d167fffffffffffffffffffffffffffffffffffffffffffffffffffffffffffffffff82610cd9565b610d208683610cd9565b95508019841693508086168417925050509392505050565b6000819050919050565b6000610d5d610d58610d5384610a3d565b610d38565b610a3d565b9050919050565b6000819050919050565b610d7783610d42565b610d8b610d8382610d64565b848454610ce6565b825550505050565b600090565b610da0610d93565b610dab818484610d6e565b505050565b5b81811015610dcf57610dc4600082610d98565b600181019050610db1565b5050565b601f821115610e1457610de581610cb4565b610dee84610cc9565b81016020851015610dfd578190505b610e11610e0985610cc9565b830182610db0565b50505b505050565b600082821c905092915050565b6000610e3760001984600802610e19565b1980831691505092915050565b6000610e508383610e26565b9150826002028217905092915050565b610e6982610b39565b67ffffffffffffffff811115610e8257610e8161087e565b5b610e8c8254610c83565b610e97828285610dd3565b600060209050601f831160018114610eca5760008415610eb8578287015190505b610ec28582610e44565b865550610f2a565b601f198416610ed886610cb4565b60005b82811015610f0057848901518255600182019150602085019450602081019050610edb565b86831015610f1d5784890151610f19601f891682610e26565b8355505b6001600288020188555050505b505050505050565b7f4e487b7100000000000000000000000000000000000000000000000000000000600052601160045260246000fd5b6000610f6c82610a3d565b91507fffffffffffffffffffffffffffffffffffffffffffffffffffffffffffffffff8203610f9e57610f9d610f32565b5b600182019050919050565b7f496e76616c696420494400000000000000000000000000000000000000000000600082015250565b6000610fdf600a83610b44565b9150610fea82610fa9565b602082019050919050565b6000602082019050818103600083015261100e81610fd2565b9050919050565b7f4e487b7100000000000000000000000000000000000000000000000000000000600052603260045260246000fd5b7f596f7520617265206e6f7420746865206f776e6572206f66207468697320646160008201527f7461000000000000000000000000000000000000000000000000000000000000602082015250565b60006110a0602283610b44565b91506110ab82611044565b604082019050919050565b600060208201905081810360008301526110cf81611093565b9050919050565b60006110e182610a3d565b9150600082036110f4576110f3610f32565b5b60018203905091905056fea2646970667358221220aae8e016c593f0998050479a4b114c7513ccd25fa7ac4843050a4557a4156c0764736f6c63430008130033",
  "immutableReferences": {},
  "source": "\n\npragma solidity ^0.8.0;\n\ncontract Shivom {\n    struct GenomicData {\n        uint256 id;\n        string dataHash;\n        address owner;\n        bool isPublic;\n    }\n    \n    GenomicData[] public genomicDataList;\n    uint256 public dataCount = 0;\n\n    function addData(string memory _dataHash, bool _isPublic) public {\n        genomicDataList.push(GenomicData(dataCount, _dataHash, msg.sender, _isPublic));\n        dataCount++;\n    }\n    \n    function getDataById(uint256 _id) public view returns (uint256, string memory, address, bool) {\n        require(_id < dataCount, \"Invalid ID\");\n        GenomicData memory data = genomicDataList[_id];\n        return (data.id, data.dataHash, data.owner, data.isPublic);\n    }\n    \n    function getDataCount() public view returns (uint256) {\n        return dataCount;\n    }\n    \n    function updateData(uint256 _id, string memory _dataHash, bool _isPublic) public {\n        require(_id < dataCount, \"Invalid ID\");\n        GenomicData storage data = genomicDataList[_id];\n        require(data.owner == msg.sender, \"You are not the owner of this data\");\n        data.dataHash = _dataHash;\n        data.isPublic = _isPublic;\n    }\n    \n    function deleteData(uint256 _id) public {\n        require(_id < dataCount, \"Invalid ID\");\n        GenomicData storage data = genomicDataList[_id];\n        require(data.owner == msg.sender, \"You are not the owner of this data\");\n        delete genomicDataList[_id];\n        dataCount--;\n    }\n}\n",
  "sourcePath": "C:\\Users\\91782\\Desktop\\BTP\\contracts\\shivomContract.sol",
  "compiler": {
    "name": "solc",
    "version": "0.8.19+commit.7dd6d404.Emscripten.clang"
  },
  "schemaVersion": "3.4.13",
  "updatedAt": "2023-05-07T10:53:20.536Z",
  "devdoc": {
    "kind": "dev",
    "methods": {},
    "version": 1
  },
  "userdoc": {
    "kind": "user",
    "methods": {},
    "version": 1
  }
}